:020000041004E6
:1000000000600020190D0410F10F0410F30F04100C
:10001000AA5555AA45554C420000000000000000BA
:10002000000000000000000000000000F50F0410B8
:1000300000000000000000006F0B0410F70F041018
:10004000FF0F0410710B04100000000000000000FE
:1000500001100410730B0410031004107F0B041024
:100060000000000000000000000000000000000090
:1000700000000000810B0410830B0410850B04109A
:1000800000000000750B0410770B0410790B0410AE
:100090007B0B04107D0B04106D0B0410870B0410F8
:1000A0000000000000000000000000000000000050
:1000B0000000000000000000000000000000000040
:1000C000EFF31482EFF309811C4880F31488BFF327
:1000D0006F8FF0B543464C4655465E466746F8B4CA
:1000E000174CEFF30883236006B4164C2068164CB7
:1000F0002060164C2068164C2060164C2068164C68
:100100002060164C276800202060BFF34F8F30BF5F
:1001100027600B4C246884F3088882B003BCF8BCC9
:100120009846A146AA46B346BC46F0BC04BC80F340
:10013000098881F31488BFF36F8F10470000000017
:100140000800002004ED00E03403002024ED00E06E
:100150003003002000E200E03803002008002040C7
:10016000002243088B4274D303098B425FD3030AF6
:100170008B4244D3030B8B4228D3030C8B420DD309
:10018000FF22090212BA030C8B4202D31212090297
:1001900065D0030B8B4219D300E0090AC30B8B42D5
:1001A00001D3CB03C01A5241830B8B4201D38B0383
:1001B000C01A5241430B8B4201D34B03C01A524128
:1001C000030B8B4201D30B03C01A5241C30A8B426B
:1001D00001D3CB02C01A5241830A8B4201D38B0256
:1001E000C01A5241430A8B4201D34B02C01A5241FA
:1001F000030A8B4201D30B02C01A5241CDD2C3096C
:100200008B4201D3CB01C01A524183098B4201D3E7
:100210008B01C01A524143098B4201D34B01C01AD2
:10022000524103098B4201D30B01C01A5241C3084A
:100230008B4201D3CB00C01A524183088B4201D3B9
:100240008B00C01A524143088B4201D34B00C01AA5
:100250005241411A00D20146524110467047FFE711
:1002600001B5002000F006F802BDC0460029F7D015
:1002700076E770477047C046437802781B021A43FE
:100280008378C0781B041343000618437047C046A8
:10029000030A4B7003021B0E8B70030E0870CB70A9
:1002A0007047C04603005A780078120202439878DB
:1002B000197900040243D878000610435A791202D3
:1002C0000A43997909040A43D97909061143704709
:1002D000030A5370030C9370030ED3700B0A53710F
:1002E0000B021B0E93710B0E10701171D3717047BE
:1002F000024A1368013313607047C04600030020B0
:10030000124AD3691B061B0F4370D9B2D369104A36
:100310001B071B0F83700F4B1B684360934212D166
:100320000D4B1A680D4B9A420BD104230370002920
:1003300001D1012343700A4B9B8A01339B008360E8
:1003400070470223F2E70123F0E7C0460000904027
:1003500041A00002280090401C00001044A000F2C0
:1003600000001040F0B5070085B001AC0E00200081
:100370001500FFF7C5FF23783B7063783370A378CF
:100380002B7005B0F0BD10B501F064F810BD10B5CC
:1003900001F07CF810BD10B501F04EF810BD000062
:1003A000024A138ADB07FCD57047C04600001040A4
:1003B000084B10B51A68084B9A4209D13F22074BE7
:1003C00040061A81000C2E3A98611A80FFF7E8FF68
:1003D00010BDC04614000020CCBCECFC0000104056
:1003E000084B10B51A68084B9A4209D13F22074BB7
:1003F00080081A810C3A986119641A80FFF7D0FFBF
:1004000010BDC04614000020CCBCECFC0000104025
:10041000F7B5037901680193002B2BD18022D20517
:1004200053688B435360802200240F27D2050B00B2
:100430000125E3402B420BD0E6B2A300072C24D8C1
:100440003D009D40D66AAE43019D9D402E43D6623D
:1004500001341A2CEBD180234279DB05012A3DD1EE
:10046000DA680A43DA608279012A3AD19A6811433C
:100470009960F7BD019B062BD5D18022D205536828
:100480000B43536000230193CDE708256D42AC4632
:10049000B4446546072D09D83D00203B9D40166BAE
:1004A000AE43019D9D402E431663D1E7103E072EBB
:1004B00009D83D00403B9D40566BAE43019D9D4099
:1004C0002E435663C4E73D00603B9D40168FAE430C
:1004D000019D9D402E43B6B21687B9E7DA688A437C
:1004E000C0E79A688A439A60C3E700230360838069
:1004F000837170478023DB05D86370478023DB0559
:1005000018647047C02380211B061A680A431A60CA
:100510001A688A431A607047410010B50E48FFF709
:100520001FFEFE23421E1B029A4212D30223012009
:100530000A4A0B491374136800020B4018431060F9
:1005400010BD5B00DBB24008FF28FAD80138C0B20A
:10055000EEE70223F8E7C0460024F4000000404024
:10056000FF00FFFF70B5040001264068FFF7D4FFCD
:100570000420104B21785A683140890082430A4395
:100580005A604022A57818683540AD019043284351
:1005900018608020E1781A683140C90182430A431B
:1005A0001A6061781A686138014082430A431A6010
:1005B00070BDC04600004040014A024B0CC070476D
:1005C0000107000040420F00054B02225968002835
:1005D00002D00A435A60704791435960FBE7C04616
:1005E00000004040014B98607047C046000040400A
:1005F000014B98687047C04600004040034B1B7B8E
:100600001840431E9841C0B27047C04600004040A9
:1006100010B50420FFF7F2FF012800D010BD014BF8
:100620009B68F6E7000040400222084B0848197812
:100630000A4308491A700A7BD20704D502211A78A6
:100640008A431A7070470268F5E7C0468000404050
:100650008C00404000004040044B1A6A012902D13E
:1006600010431862704782431A62FBE70000904013
:10067000274B284A197A1289CBB292B200293CD171
:1006800009201040093843425841112340011340CA
:10069000112B01D12F33184321231340212B01D1DA
:1006A0008023184341231340412B02D180235B0058
:1006B000184381231340812B02D180239B001843D0
:1006C00002231100FF331940994202D18023DB003D
:1006D00018431100104B1940994202D180231B018D
:1006E000184305231340052B01D110231843D2438F
:1006F000930701D10823184370470120022BFBD038
:100700000220042BF8D0083B584258418000F3E700
:10071000000090400000104801040000054B012239
:10072000196B002802D00A431A637047914319637A
:10073000FBE7C04600003040F8B54A4C0500236B8B
:1007400001681B0700D56DE009014748FFF708FD68
:10075000C3099AB2A284454ADB0101301340C31A8F
:100760005B089BB23F2B02D93F223F3B134003273C
:1007700060263F4ADBB213703E4B2A7918783A4024
:100780005201B0431043187001206979227F39402B
:100790004901B2430A432277AA7919780240BA4044
:1007A0000730814311431970217F81430A43227727
:1007B000EA79002A38D102211A788A431A70227FF6
:1007C0008A43012022772A7A216B1600C2402A4FE1
:1007D00006407602394031432163216B274E0240A7
:1007E000314012020A432263697A226B0E00C14033
:1007F000234F06403A40B60332432263226B214E18
:1008000001403240C90311432163AA7A197802409A
:100810000F301201814311431970237F83431A4320
:100820002277F8BDC90090E7022A0CD1042019787C
:1008300011431970197881431970217F0A43227777
:10084000227F8243BDE702211A780A431A700422EC
:10085000187810431870207F01432177217F0A43C5
:10086000AFE7C046000030400000127A80FF7F00F2
:10087000280030402C003040FFFDFFFFFFFEFFFF4F
:10088000FFBFFFFFFF7FFFFF0721044A08401378E7
:100890003131C0008B430343137070473400304044
:1008A00070B5012186B006000920FFF7D5FE00F0E3
:1008B00059F81B4B01388000C3580025019300F004
:1008C00051F8184B0138800001ACC3582000237147
:1008D000A5716571FFF79CFD00F044F8124B0138DB
:1008E0008000C358019300F03DF8104A431E9B005E
:1008F0009B5820002371FFF78BFD0D4B6A46049334
:1009000003230124938203A894750396FFF714FF31
:100910002800FFF7B9FF2000FFF700FF06B070BD09
:10092000C4FF0410C0FF0410BCFF0410B8FF041083
:100930000303000010B500F08DFD10BD10B500F0F0
:1009400089FD10BD10B50A00002100F09FFD10BD0B
:1009500010B5FFF7F7FF10BD0122014B1A70704769
:1009600004030020014B1878C0B270470403002034
:10097000F0B587B0012104AC01901120FFF76CFEA7
:100980002000FFF7B2FDFFF7EDFF364B0138800086
:10099000C35801260493FFF7E5FF0025324B0138C9
:1009A0008000C35820002371A6716571FFF730FDE8
:1009B000FFF7D8FF2D4B01388000C3580493FFF791
:1009C000D1FF2B4B01388000C35820002371FFF763
:1009D0001FFDFFF7C7FF274B01388000C358049362
:1009E000FFF7C0FF244B01388000C358200023715B
:1009F000FFF70EFDFFF7B6FF204B01388000C3580C
:100A00000493FFF7AFFF1E4B01388000C35820004E
:100A10002371FFF7FDFCFFF7A5FF1A4F0138800097
:100A2000C3592000049306232371FFF7F1FCFFF75D
:100A300099FF01388000C059FFF760FD02A8FFF759
:100A4000BBFD114B02A80293019B0393FFF78AFDA4
:100A5000FFF7EAFDFFF7DCFD3000FFF7B5FD2800EA
:100A600007B0F0BDACFF0410A8FF0410A0FF0410F5
:100A70009CFF0410B4FF0410B0FF041098FF041092
:100A800094FF0410A4FF041001070001F7B50F0044
:100A90000190FFF7C9FDFFF7BBFDFFF763FF314E84
:100AA000013880008059FFF725FD8820FFF79AFD67
:100AB00000240420FFF7A2FD002811D101342A4BA5
:100AC000A4B29C42F5D1FFF74DFF013880003058A9
:100AD000FFF714FDFFF7A8FDFFF79AFD012040E0A6
:100AE000AF25AD00AC42EED0FFF782FDC3B23B7044
:100AF000032BE8D81E2000275843019CC0B22318BE
:100B00000193019BA3420BD100241020FFF776FD37
:100B100001281AD10134144BA4B29C42F5D1D2E77A
:100B2000FF20FFF75FFD0420FFF768FD002805D1D7
:100B30007B1C9BB2AF42C6D21F00F4E7AF42C2D2C9
:100B4000FFF756FD20700134DBE7AF239B009C428A
:100B5000B9D0FFF707FF013880003058FFF7CEFC0F
:100B60000020FEBDA4FF0410BD02000070477047C6
:100B700070477047704770477047704770477047BD
:100B80007047704770477047002210B5104B995C52
:100B9000C8B2002917D11C2A14D821240231995433
:100BA000511C5C54911C193C5C54D11C58549B182A
:100BB000802290219BB252021343C905CB60CB68BF
:100BC0001342FCD110BD995C01315218D2B2DEE75C
:100BD00005030020002330B50E4AD15CCCB20029B9
:100BE00013D11C2B08D835250231D154591C55542A
:100BF000991C03335054D4540222074B1A703332D9
:100C00005A7000229870DA7030BDD15C01315B18E7
:100C1000DBB2E2E7050300201C00002080220E4B1F
:100C2000520230B59CB211001443002806D0902324
:100C3000DB05DC60DA680A42FCD130BD0425987817
:100C40009978C0B2A94399709021C905CC60CC684D
:100C50001442FCD19870F0E71C0000200123274AC1
:100C600030B5117A03240B4313720022244B85B054
:100C70001A60FFF7FDFC6B4658805A880233002A41
:100C800003D1013CE4B2002CF3D11A881F2A32D9D7
:100C90001B885B0510D401A8FFF732FB6B465A791D
:100CA0009B7912011A43174B1B681B0711D4112A99
:100CB00002DD0120FFF7B2FF0122134B1A70FFF78C
:100CC00028FABFF34F8F114B114ADA60BFF34F8FF1
:100CD000FEE790250F4CED0528692368283B1B1A79
:100CE0001B02002BE8DD112A02DD0120FFF796FF31
:100CF00023686B60E0E7012005B030BD00002040B4
:100D000014000020C00000200C00002000ED00E0D6
:100D10000400FA051800002010B5FFF79FFF012816
:100D200013D1124A124B13498B4214D3124A134B5C
:100D300013498B4212D30021124B134A934210D312
:100D40000021124B124A93420DD3124B83F30888B1
:100D500000F05CF910BD01CA01C3E5E701CA01C397
:100D6000E7E702C3EAE702C3EDE7C046A4010510C6
:100D70007C030020D003002078010510080000202B
:100D800034000020C0000020CC020020CC02002053
:100D90007C0300200060002070B58AB003AC050021
:100DA0000E0019222000434900F054FB6846FFF76B
:100DB000A7FA002D60D044233F4AA373117A433B26
:100DC0000B4313724C23E3722C3B237292336374F4
:100DD000573B2375394B3A4A1B68190C914208D18D
:100DE0007020E17D1B018143E175E17D03400B43F0
:100DF000E375344B1B68190C914208D1302061799E
:100E00001B0181436171617903400B4363712E4B78
:100E10001B68190C914207D10321E27D0B408A43E4
:100E2000E275E27D1343E3750422E37A6946934356
:100E3000E3726B465B78897893400B43112B06DD98
:100E4000E37D1A43E275E07DC0B2FFF7C3FE802365
:100E500090222404240C5B021C43D205D460D16888
:100E60001942FCD16B466A465B7892781B011343AA
:100E7000112B01DDFFF788FE144B1A8B002AFCD0E2
:100E800001221A8316329A8100221A61964207D0F3
:100E900090231021DB0518691A6942400A42FBD0F1
:100EA000002D02D015220A4B1A700A4B0A4A1A600A
:100EB0000AB070BD74FF041000002040E807001065
:100EC00055AA0000E4070010B00700100000104809
:100ED0000000C04014000020CCBCECFC0822F8B597
:100EE000C027C0213B4B3C4D9A803C4A3F04136ACB
:100EF00009062B403B431362136AFF271B021B0AA0
:100F00000B431362C02292009446C020344B6446C7
:100F10009A58344EBA430243C0201A511A5900025B
:100F2000324002431A51C12292009C58BC433F3FB9
:100F30003C439C509C58C027344004439C509C58D0
:100F40003F042C409C509C582402240A0C439C5083
:100F50000832944664469A58324002431A511A594C
:100F60002A403A431A511A591202120A0A431A51D4
:100F7000C4229200944664469A58324002431A5161
:100F80001A592A403A431A511A591202120A0A43AC
:100F90001A51C52292009C582700FF24A7433F3CCA
:100FA0002743C0249F509F5824043E40304398500C
:100FB000985805402C439C5098580002000A014361
:100FC000995001210800FFF7E7FE074B074A1A6214
:100FD00062B6F8BD00001040FFFF00FF00ED00E02A
:100FE00000E100E0FF00FFFF0000904066000E00FF
:100FF0007047FEE7704710B5FFF77AF910BD7047EC
:10100000704710B504F098F910BD000010B5FFF757
:1010100065FFFFF7A1FCE1204002FFF741FC084813
:1010200000F0A4FB002800D0FEE700F023F9002820
:1010300000D0FEE700F058FB00F09EF9FAE7C0464A
:10104000C8FF0410BFF34F8F024B034ADA60BFF3AF
:101050004F8FFEE700ED00E00400FA0510B503280D
:1010600006D8537810781B021321184300F0C7FAF2
:1010700010BD0000F0B52B4B8BB007932A4B2B4CC7
:1010800008932B4F2B4B1022200006A9099306979B
:10109000FFF779F9284A294B21001B78022000929A
:1010A000012200F0E2FA041E39D11025244E254A0F
:1010B000254B08920990102206A930000793069745
:1010C000FFF761F91C49214B08883200059304940D
:1010D000029401942B0002210395009500F0A6FADA
:1010E000041E1CD1184B174A0793E02308921B04D7
:1010F0002A0006A9300009930697FFF744F90E4B22
:1011000032001888124B0221059304941223039590
:1011100002940194009500F089FA002800D047203D
:101120000BB0F0BD0200B49AE1113ACF6A0300207F
:101130001BC5D5A5806E36023E030020CC030020DF
:1011400048030020E1110100020036AC44030020F6
:101150003C030020902110B5C9050A6988B004AB92
:10116000120A1A700A690100120C5A701A000E3124
:101170000478023214704478023054708842F7D1F7
:10118000094A0A490A4812880988008800240393FA
:1011900010230194029300930F3B00F08BFAA042BE
:1011A00000D0472008B010BD440300203E030020BB
:1011B0002C030020902110B5C9050A698AB005AB3F
:1011C000120A1A700A690100120C5A701A001031C2
:1011D0000478023214704478023054708842F7D197
:1011E000094A0A490A48128809880088002403939A
:1011F0001223019402930093113B00F05BFAA0428A
:1012000000D047200AB010BD3C0300203E03002060
:101210002C030020002310B588B06946C25C5A54E4
:1012200001330E2BF9D1002304AC0E30C25C1A55E9
:101230000133102BFAD16846FFF78CFF002804D148
:101240002000FFF7B7FF002800D0472008B010BDEE
:10125000034B10B51888002801D000F021FA10BD0A
:101260002C03002010B50248FFF782FB10BDC046DA
:1012700040420F00F0B507248DB00622294908A886
:101280000AAD00F0E7F822002749280000F0E2F854
:101290000621002008AA00F022FA00283FD10421EC
:1012A000013000F018FA00F001FA002837D11A26B0
:1012B0001E236E446B4407AF0100019322003300EC
:1012C0000097013000F018F9002828D13A883188B9
:1012D0000300039502940190009400F0EBF90028BC
:1012E0001DD1124B012103931023020004900290A0
:1012F000019300940300080000F016F900280ED1B5
:10130000FFF7B0FFFFF7B6FE002808D10A21013031
:1013100003F0B1FAC0B2002801D1054B18700DB02E
:10132000F0BDC0468DFF0410FDFF041040E2010037
:101330002E03002030B508248BB008AD2200280011
:101340000A4900F087F80021080003F015FA002090
:101350000123074A074906900590049003900295DF
:101360000194009000F02AF90BB030BDFCFF04108E
:10137000660600003303000010B5154C98B02378C2
:10138000002B03D0FFF7D6FF00232370114C2378E6
:10139000002B1BD000230A210120237003F06BFADD
:1013A000002801D0012323700B4B1B68002B0DD0AC
:1013B0006B46DC1C210001A8FFF768FB002805D163
:1013C0002378012B02D101A8FFF724FF18B010BD2C
:1013D000CE0300202E030020280300200122024B10
:1013E0001A60024B19807047280300202C0300204C
:1013F00000230121034A1360034A1170034A13803A
:101400007047C04628030020CE0300202C03002094
:1014100010B50800FFF71CFF10BD0000012801D126
:10142000014B18707047C0462E030020704770476C
:1014300010B500F018F810BD30B500240139A242F3
:1014400001D1002005E0035D01340D5DAB42F6D013
:10145000581B30BD002310B59A4200D110BDCC5CA2
:10146000C4540133F8E710B5884202D98B1898426A
:1014700003D3002307E08B5C8354013AFBD210BDF9
:10148000CC5CC45401339A42FAD1F8E703008218C5
:10149000934200D1704719700133F9E7F0B5054662
:1014A00000200F46079E059C174309D0202905D32D
:1014B0000127BF03BA4201D8914201D94220F0BDB1
:1014C000194621430AD09C42F8D309498C4203D0E3
:1014D0000849A41F8C42F1D2062BEFD3002D03D074
:1014E000022D01D0032DE9D1032EE7D8F0BD000075
:1014F000FFFF00007B0C00007CB5069D079C0028C8
:1015000005D0860705D1460703D4060701D442203B
:101510007CBD002903D0012901D00229F7D1009513
:10152000019400F017FB7CBDFFB583B003980C9DC0
:101530001E4614460F46002804D0012802D042203F
:1015400007B0F0BD002F01D0012FF8D1E81F0A2805
:10155000F5D20D981028F2D8A842F0D30E980028A2
:1015600001D00128EBD114490F988842E7D8109890
:10157000002801D00128E2D10BF05EFC012804D044
:101580002046304305D01120DAE7022CD7D8012EAF
:10159000D5D868460399017047708472C672857009
:1015A0000D99C1700E9901720F98019068461099BB
:1015B00041720BF013F8C3E73F420F00FFB587B04D
:1015C000109D159E169C01930295009407A807C8CC
:1015D0001F463346FFF762FF00280ED11398149977
:1015E00003AA069443C211981299019000950291A2
:1015F00007A807C83B4600F01FFC0BB0F0BD10B5B4
:1016000007F0C0FA10BD70B51C4613460D46012CFC
:1016100003D0022C03D0422070BD022200E0102231
:101620001946FEF7B0FE2C70002070BDF0B587B0F3
:101630001C460B46054600A9023101A80C9F0D9ED1
:10164000FFF7E1FF00280ED1684605808482877588
:10165000C6750E9901760F99417610998176694683
:10166000119801F059F907B0F0BD70B586B0144675
:101670001D460A4603466946881C0A9EFFF7C3FFBB
:10168000002804D1012C04D0022C02D0422006B044
:1016900070BD23462A466946304601F087FBF6E7CF
:1016A00010B50022114601F031FC10BD10B501F05B
:1016B00079FE10BDF0B585B084460AA8F0C868462A
:1016C0008581C68103A8019002970094604602F0CC
:1016D00053F905B0F0BD10B502F09CFE10BD10B579
:1016E00002F0BAFE10BD000010B503F069F91D4C00
:1016F0004121206849014118097F00290DD1A030FE
:101700000079C00705D100F077FB01F0E3FC09F098
:1017100053FC02F0D3FF0BF0A9FB00F001F92068A5
:10172000014640310A78C9798A4319D13E21095CC2
:10173000002915D10C490A88120711D50922D206B1
:101740001269497A836AC90059181123DB01C0184C
:10175000806A801A00020012814201DA08F0F4FC6B
:1017600010BD0000C4030020C000002010B5837F1E
:101770000122002492024168082B03D9422491429D
:1017800002D310E0914201D242240CE001463422FF
:101790000648FEF7F8FD00F083F8002801DA482437
:1017A00001E000F02DF9204610BD0000CC02002021
:1017B0003EB5174D15482968827F0846A0310A7347
:1017C00000246030047644768476E122C27680225A
:1017D000027702224277302008704C7002AA01A9D9
:1017E0006846FEF7BFFD68460078A2220101684600
:1017F000007A891C00020143684600790003014316
:1018000028681152A03004713EBD0000CC020020B7
:10181000C403002070B503F0B9F807F0D7FF06F055
:10182000D3FE0CF03DF903F095FA1A4C1A492068E2
:101830001A4D4018811013202A68C0011018C16287
:10184000616889080163A168890841630AF0CCFBDB
:1018500029681F208001228B08188280628B0F2349
:10186000C280DB01A28BCB18DA87628C0280224611
:101870002032127882703D225201002089180873AC
:1018800000F066FA02F02AFF02F0B0FE0BF074FBE3
:1018900070BD0000CC0200200000FCEFC40300205B
:1018A00070B50025ED4302F052FF01282ED0002331
:1018B00018490322888BFF24401E10438A7F593425
:1018C00062438218088B282460431218488B302406
:1018D000604312180846203040782C2460431018CA
:1018E0000D4A181884184869A0420DD10B4884424B
:1018F0000AD90D6902F02BFFC1B2284605F0D2FBD0
:1019000005F00CFD401B251A284670BDFF23B5339A
:10191000CEE70000CC02002089190000B8090000C1
:10192000F8B52C4F3C68206E5C34401C002814D065
:10193000002529480023C07B00283ED00926F60652
:101940002648002D1CD000210A460B464169521C36
:10195000994204D1002902D004E00125E9E7204B97
:101960009A42F2D32160006960603069A168000288
:10197000090E000A09060143A16000F033F81DE0DA
:101980003169A2680902090A150E08D0018BC9073E
:1019900012D04169216000696060E37210E0881A2A
:1019A00000027D2300121B03984205DD100E000685
:1019B0000843A06000F016F8F8BD6360002DFBD06E
:1019C00003CC08F0EBFAFA2008F0D8FA39688862FC
:1019D000F8BD0000C4030020EC0200200000104805
:1019E00088130000044900200861044801210068B0
:1019F0006030C1717047000000001048C40300202F
:101A0000F8B5062632484025056032480027078091
:101A1000A9050920C00641602F4A91600168016054
:101A20002E48032104694269601E08433946401C60
:101A3000FEF7ADFC02F08BFEC1B2204605F032FB92
:101A400005F06CFC05F076FC04F04CFC24491720F2
:101A50008881244C2068421901465770FA20886218
:101A60002820107002F071FE012805D12068102294
:101A700040300178114301700BF0DEF9012805D1E7
:101A800020688022403001781143017020680146AF
:101A900040300278324302700020C0430866FEF7EF
:101AA00031FDFFF785FEFFF7B5FE206801212030EC
:101AB000017707214177012002F0ACFC04F0A8FC7B
:101AC000FFF72EFF02488038056002210160F8BD53
:101AD00080E100E0C000002040000048CC0200206F
:101AE00000001048C403002038B5184A1468224684
:101AF000BA32AE34A378DD0701D001290AD05B07E2
:101B00000CD501290AD0217949070BD5E17A0029A2
:101B100005D007E0E07880210843E07038BD01215E
:101B2000E172508020794106090FF7D078210840F2
:101B300069460870002048706A460221422000F081
:101B4000C1FA207987210840207138BDC4030020E4
:101B500070470000FFB50C4678A103C995B001910C
:101B60000090002108A801730321C902684641863C
:101B7000012108A8734E017435681746AE350DF083
:101B8000BFFF002808D170493068401807F006F8F8
:101B9000A878002802D0462019B0F0BD0BA81599EE
:101BA00000F066F90028F7D1072010A90871012C70
:101BB00005D0022C0AD0002C0ED04220ECE708A859
:101BC000017B1020014308A8017305E011A90BA8AF
:101BD00000F05DF90028DFD110A8027901230CA9DB
:101BE000284601F0E3F800287ED102222946189801
:101BF000FEF7C9FB298868468181152149020182C7
:101C00000784012686734E2108A881700024C470C1
:101C1000067107214171867103A902A800F07CFEBC
:101C2000002861D1022202A91E98FEF7ACFB082F02
:101C300002D26846478502E0082069464885694621
:101C40000C850B4628880AAA098901F061FE002844
:101C50006DD13E49684601820227078408A8847135
:101C600003A902A800F058FE002860D1022202A9B0
:101C70001F98FEF788FB68460470694644704F85DC
:101C80000B4628880AAA098901F042FE00284ED195
:101C900008A8007BC00723D02C496846C91C0182D4
:101CA0000821018408A88770047103A902A800F024
:101CB00033FE00283BD1FF216846C1718171C1709C
:101CC0008170417001704471047169460820488533
:101CD0000B4628880AAA098901F01AFE002826D195
:101CE00008A8007B800600E021E022D5298868460C
:101CF00081811649A53101820684867308A8877000
:101D0000C470047107214171847103A902A800F015
:101D100003FE00280BD169460E700C854E850B46DC
:101D200028880AAA098901F0F3FD002801D047207C
:101D300032E708A8007BA87000202DE7626C75656B
:101D40006E726721C403002033070000012A0000DF
:101D5000034800210068AE30C170817070470000F8
:101D6000C403002038B50246174801240068AE308D
:101D7000022A1FD0052A03D0072A07D00B2A20D118
:101D8000084609794088FFF7AFFE1AE00079002481
:101D9000020600D50124820703D1C20601D48006C1
:101DA0000FD5084600216A461170694600F072F8A6
:101DB000044606E08178490703D50179FB221140EA
:101DC0000171204638BD0000C403002010B5094849
:101DD0000468AE34E07880070BD5002007F08CFB58
:101DE000022000F047F9E07801210843FD21084076
:101DF000E07010BDC40300201FB50E480468AE3467
:101E0000E078010612D5A178C9070CD0800708D563
:101E1000042069460873684602F0ACFE022000F018
:101E200029F90020E0704006400EE07000F02EF826
:101E30001FBD0000C4030020F0B58DB00C4616A9EC
:101E4000E0C90021089109910A910B91159904911B
:101E500005A9E0C112A962C9009301911346014688
:101E6000039602952246012000F04AF80DB0F0BD1D
:101E70000A07920F01D0422070478A07FBD00278F0
:101E80008907890F0A43027000207047704742207B
:101E90007047000030B5194B047A1B68C268AE3336
:101EA0001B799D06AD0F04D10078042801D00020D5
:101EB0000EE0012030BD155C002D0BD0401C80B21F
:101EC000155C012D08D01518203DED7F281880B233
:101ED000A042F0D3087830BD401CDD07012480B259
:101EE000002D02D0105CC00703E09B07F2D5105C08
:101EF00080070028EED00C70ECE70000C40300203F
:101F0000FFB595B00E46054620210CA8FEF720FD32
:101F100000200490564800270468681EAE34042848
:101F200002D8A078C0070BD0062D02D0002D0AD011
:101F300002E0A078800703D5E0784006800E0AD042
:101F4000462019B0F0BDA0788007F9D0E0784006AF
:101F5000800EF5D00FE0002D0DD0012D20D0022DE8
:101F600028D0062D33D0032D33D0042D37D0002EAA
:101F70003BD04220E5E7002007F0BEFA0028E0D180
:101F8000E078800708D5042069460873684602F0A7
:101F9000F1FD022000F06EF80120E0700020D0E793
:101FA000012EE6D0042EE4D01F980028E1D10627A8
:101FB000042008E0012EDCD0042EDAD01F9800287F
:101FC000D7D105270220E0700120049010E04020C6
:101FD0000DE0022E01D0032ECBD1082007E0012E08
:101FE00001D0042EC5D1102001E004272020E0708C
:101FF00000230BAA19461E9806F02AFC030002D003
:1020000000F0E0F832E01022002107A8FEF7BFF947
:1020100007A86C46279B269A1F990FC42B4630466B
:10202000189A179900F088F80300E9D108A8017BF5
:10203000C170259803AC049B289A29990FC422AB40
:1020400007CB02920091019039460CA8209B219A5F
:1020500000F0C2F80300D3D107A807F04BFD03003E
:10206000CED1012007F048FA0300C9D1184668E72D
:10207000C403002010B50446C1061148006803D50A
:102080001522BF210C4006E0392149014118897B06
:10209000C90710D012222107890E08180121C90290
:1020A0004018C06C002321460AF0B0FF010004D0A4
:1020B00020460AF097FF002010BD072010BD000049
:1020C000C4030020F8B5891ECDB20646A81C032122
:1020D0000843401C8308174817460068F10603D5DB
:1020E0001C22BF210E4008E0392149014118897B9B
:1020F000090601D40020F8BD19223107890E0818FD
:102100000121C9024018C06C31460AF07FFF04006B
:102110000ED03978217179786171A5712A46B91C80
:10212000E01DFEF730F9214630460AF05BFFE1E79B
:102130000720F8BDC4030020F8B5204B204D1B68D4
:1021400001265B19069CB6030093002814D00428CE
:1021500012D0022813D0032811D006252B460128BF
:1021600010D00F4617430DD0914203D8202901D338
:10217000B2420AD94220F8BD30256023EFE7A025FE
:10218000F023ECE72580638001E0218062802071EC
:102190000798A071089820720998002805D0014678
:1021A000204606220930FEF7EEF8072060710098FD
:1021B0002030807B60710020F8BD0000C403002047
:1021C00058080000034881220068A030417C11407B
:1021D00041747047C4030020F8B505463E481E46CA
:1021E0000068079F0024AE301346002905D0022264
:1021F0002A7001226A70A9700324002E10D0807802
:102200008006800F0CD13019401C1F2854D82E5541
:10221000641C281932461946FEF7B5F8A019C4B255
:10222000002F0DD03819401C1F2845D82F55641C8D
:10223000E4B228193A460699FEF7A5F8E019C4B2A7
:102240006846008C00281BD06846808C002817D078
:10225000601D1F2830D805202855641CE0B21221CB
:102260002954401CC4B228190646022208A9FEF7C8
:102270008AF8B01C022209A9FEF785F8241DE4B2F1
:102280000C98002812D0E01C1F2815D802202855D1
:10229000641CE0B20A212954401CC4B2684607F00D
:1022A00033FE684600782855641CE4B20B98002879
:1022B0000CD000191F2801D94220F8BD28190B9A0B
:1022C0000A99FEF760F80B982018C4B221462846F8
:1022D00007F06CFBF8BD0000C403002010B50D49E9
:1022E00000050B68092109025918CA6E0021000D6A
:1022F000A0331B7B0AE04C01145B2405240D8442AF
:1023000002D14801801810BD491CC9B28B42F2D8D5
:10231000002010BDC4030020F8B5069C1F461546DA
:102320000646002C13D0A06802220D30FEF72BF8D1
:10233000E81E82B23B460721204606F0D3F9E5802D
:10234000A068012E05D01D2101730020F8BD472093
:10235000F8BD1B21F8E70000F1B5FFB001248BB0F8
:10236000600205900027CC4807970168CB48C94D0B
:10237000081803908A980AAA0005000D05A908F01C
:102380007FFB0690002872D104260AA805994218FE
:10239000203AD27F0B2A23D00026002004900AA8DE
:1023A0008119022201A80291FDF7EDFF684681889C
:1023B00009AB08AA039801F0A7FC012817D002284E
:1023C0007ED068468088854200D30546844200D985
:1023D0002046044602988078012872D013363CE1EA
:1023E000491E761E36040591360CCFD1D5E70898E4
:1023F0000090002F66D10099022228310298FDF743
:10240000CAFF00281ED100982030017B02988078F6
:10241000814217D1012808D1009802990222083080
:10242000C91CFDF7B8FF002815D002988078022853
:1024300008D10098029910220830C91CFDF7ABFFA3
:10244000002808D00098008DA84200D80546A04278
:1024500000D22046044602990AA88978012907D0AB
:1024600013360599B6B28E4204D3012707E006E180
:10247000761DF6E78119022201A8FDF784FF039972
:10248000009808318E462FE084466946026A8B88A0
:1024900020300DE0918B994203D3012F7ED19942D8
:1024A0007CD9A94200D80D46A14200D30C4612683F
:1024B0008242EFD10498002804D16046006802E00F
:1024C00015E0BFE08AE070450ED0018D994203D33C
:1024D000012F09D1994207D98D4200D30D468C4274
:1024E00000D80C46012F59D17045CDD1BAE00898DB
:1024F0000090002F72D1009902221C310298FDF742
:102500004AFF00281ED100982030C17802988078B8
:10251000814217D1012808D100980299022208307F
:10252000C91CFDF738FF00281AD0029880780228CD
:1025300008D10098029910220830C91CFDF72BFF22
:1025400000280DD00098808BA84200D80546A042F4
:1025500000D22046044602988078012826D003E065
:1025600002988078012805D013360798B6B2012862
:102570001ED021E000984A490089884216D18A98E5
:10258000FFF7ACFE0146009800F08CF80099098C2A
:102590004843009989694018022200E038E0029916
:1025A000491DFDF7F0FE01200790D4E7761DDCE71A
:1025B000B61C0020B6B207900598864201D30127C9
:1025C00005E00AA88119022201A8FDF7DCFE039AA2
:1025D0000099083209980968944630E01AE0864666
:1025E0006A46938820300DE08A8B9A4203D3012FEC
:1025F0000ED19A420CD9AA4200D81546A24200D365
:10260000144609688142EFD1049800282AD102E0DB
:102610000120049026E07046006860450FD0028DCE
:10262000016A9A4203D3012F09D19A4207D99542F0
:1026300000D31546944200D81446012FE8D16045D6
:10264000CDD10FE00298C078022805D10298007918
:10265000292801D1B61CB6B2761D0598B6B28642BD
:1026600000D301270598811B042902D3864200D29A
:1026700093E604980028FBD1A54203D906987FB0C1
:102680000CB0F0BD224629468A9801F083FB0690E3
:10269000F5E70000FFFF0000C4030020640700000E
:1026A0000229000030B5024623239B5C0020012B49
:1026B0001AD112890D4B9A4216D10D4A092312687C
:1026C0001B02D318A032DB6E127B0AE045010C8896
:1026D0005D5B24052D05240D2D0DAC4204D0401C5E
:1026E000C0B28242F2D8002030BD000002290000B2
:1026F000C4030020064909220968120289188008CB
:10270000C96E400108180188002900D100207047D7
:10271000C403002010B50446022000F033F80D4831
:1027200000210268092000021018A032C36E107B3D
:1027300005E04A019A5A002A04D0491CC9B28842CD
:10274000F7D810BD48011C52C018026904210A4381
:10275000026110BDC403002010B5044601460420E8
:1027600002F02EFC002808D00448054900684018F3
:1027700021463C300BF0B0FA432010BDC4030020CA
:102780006407000004490A683D21490151180A7B89
:1027900002430A7370470000C403002000B51138DB
:1027A000C0B2FFF7A7FF002804D00122016952053B
:1027B0001143016100BD0000F3B597B00D88488852
:1027C0000590081D1DC80DAE1DC68C8ACE8A087ED8
:1027D0001390C869203101900878009048780490DF
:1027E00088780390C87802900F7900F0BFFD002828
:1027F00017D10120400284425FD8B4425DD8002F37
:1028000001D1B44259D114A9284601F0ABFA0028ED
:1028100006D115AA1499059801F094FA002802D05F
:10282000602019B0F0BD149D11A92846183006F09B
:1028300009FA10A88088002810D0284612A9203054
:1028400006F000FA10A8838800892A8D1818696A92
:1028500010188A8B904203D16120E2E74820E0E71C
:1028600015982C4B02899A4227D12322125C012A07
:1028700023D1006800681690139801281FD168467C
:10288000808E29221202801A030001F07CFD0604CA
:10289000180404070A18022C0FD110E0072C0CD1E1
:1028A0000DE0042C09D3E00707D1012F07D1A64280
:1028B00003D3042E01D3F00701D04220B1E70298E0
:1028C0000B90039B049A0A9309920098019A0C9723
:1028D00008900696059407920DA81DC8019002A8BD
:1028E0001CC013980B4600902A461699179800F0C2
:1028F000B1F9002895D168460649808EFF3188429B
:1029000005D01798018800200A4601F043FA0020FC
:1029100087E7000003280000F3B5A5B008881A90E7
:1029200088780C4611901022091D13A8FEF702F8B2
:10293000A08A1090A17D68460172E07D0F90207EF4
:102940002090677EA07E1F900020064601461290D0
:1029500020A801810F20BB4C2390BB492068401860
:10296000199000F003FD00280BD1012110984902B5
:1029700088425FD821A91A9801F0F4F9002802D002
:10298000602027B0F0BD2198179006F0FFF81A9943
:1029900088420CD102A801901698009013AD0ECD7C
:1029A000119806F0B7F8002801D06320E9E76846DF
:1029B000017A8806800F05D0012012902068A0308F
:1029C000007B4600C80703D01298401CB61C12902A
:1029D000080603D51298401CB61C129017980DA932
:1029E00018301D9006F02EF96846129C808EA41CAB
:1029F000A04237D317980EA92030019006F022F993
:102A00006846018F00290DD01798179A6B46406AC7
:102A10009B8E128D5918808B5118081AA04201D232
:102A20006120AEE71798846911982568012803D0C2
:102A3000022803D04220A4E7052000E01320E08311
:102A40002A4639460F9806F0B3F8422899D0199FC4
:102A5000E28B4037788B398B411A10981018801907
:102A6000814201DA48208CE70EA9019806F0EAF8C5
:102A70006846008F0028179802D0406A808B00E0DB
:102A8000008D2599401C0880259801210088A0838D
:102A9000259802220088401CA8836C48208120468B
:102AA00020301790C1700021817081711998398B85
:102AB000406D40186946A061097A0170A0692946F5
:102AC0001C31401CFDF75FFC11980128A0697DD0E6
:102AD000102213A9C01CFDF756FC2846102213A98A
:102AE0000830FDF750FC388B133038832E462036E3
:102AF0001198F0701098E8831F98B0701098208497
:102B0000109828841998398B406D4018A8610021CD
:102B1000109AFDF73CFC398B1098081838831799E8
:102B20000120087117990020487130716846007AB9
:102B3000810701D50121317101070227002902DA3D
:102B4000317939433171410703D531790422114379
:102B50003171400603D530790821084330710F9850
:102B600070712098B07121461D9806F094F82146A6
:102B7000019806F071F829461D9806F08CF8294650
:102B8000019806F069F81298002841D068461A9911
:102B90008181A18BC18107844784012408A8047125
:102BA00022A80A9008A88473239941730F993820AA
:102BB000014008A801730721C17300250574684608
:102BC000007AC00708D02248694600E02BE008825E
:102BD00003A924A8FFF7F0FD6846007A8006800F5D
:102BE00007D01B486946401E088203A924A8FFF7A6
:102BF000E3FD6846007A00060AD5292109026846E5
:102C0000018208A84473057303A924A8FFF7D4FD23
:102C1000259801881298401C081882B2002001F003
:102C2000B9F80020ADE6022213A9C01CFDF7ABFBEA
:102C30002846022213A90830FDF7A5FB388B401D5A
:102C400053E70000C40300206407000003280000CD
:102C500003290000FFB55248524A006887B0821825
:102C6000069210AA109B0126169F9288012B04D170
:102C70004D4B9A4201D1A030067B069D344640352B
:102C8000688B2B8B7C43C31A099820300390A34296
:102C900022DA48200BB0F0BD2320405C012819D176
:102CA00008896C46208098420CD03F4C641EA0429C
:102CB00008D0641CA04205D0641CA04202D0A41C11
:102CC000A04207D1384CFF3CA04201D0904201D134
:102CD0006220DFE7096801E029231B020398814293
:102CE000DAD109981B9984691898224605F060FF8B
:102CF0004228CFD01C98012804D11598874201D2D0
:102D00004220C7E71598E083204620301C990590A3
:102D1000817027840A98808B401CA083109801281A
:102D200014D02046102211A90830FDF72CFB05997C
:102D30001098C8700698298B406D4018A061298BA7
:102D4000384670430818288300250FE011A80FC8E3
:102D500008340FC4183CEAE72846A16978430818EC
:102D6000159A1799FDF70FFB6D1CEDB2B542F3D321
:102D700005991898487105991998087105991A9834
:102D8000887109982146183005F085FF214603987F
:102D900005F062FF0798A18B018000207AE7000010
:102DA000C40300206407000002290000FFB58FB0B3
:102DB00014460E78102205A8891CFDF7BBFD4F486C
:102DC0004F490068451800F0D1FA00281ED1002CA8
:102DD00057D0012E09D16846808A4A49884204D1D9
:102DE0002846A968083081424BD12846103029690D
:102DF0000390814209D00AA9284605F023FF6846BE
:102E0000018D601E0D90814202D2482013B0F0BDAA
:102E1000284608300CA9049005F014FF6846008E7F
:102E2000002814D0EF680AA93846183005F00AFFC8
:102E3000384620300CA905F005FF6846398D008D15
:102E400009186846008E401C081887B200E0012768
:102E500001200004C01BA04201D26120D6E72C69EA
:102E6000286801901298012802D0022803D008E0B7
:102E70000520C00200E024486085012E03D0022E08
:102E800005D04220C2E720460830022202E0204658
:102E90000830102205A9FDF776FA20463146203089
:102EA000064601730F98214607802785039805F091
:102EB000F2FE2146049805F0CFFE27461837E76159
:102EC0006662A76126620D9884B20BE028460199DC
:102ED00005F0E1FE3846019905F0BEFE2868641E43
:102EE000A4B20190002CF1D10F9801880D98081818
:102EF00082B2002000F04EFF002087E7C4030020CC
:102F0000640700000118000001280000F7B506461C
:102F100036480F460068364982B044183046FFF7FD
:102F2000DDF9050060D02046243000900AF0EAFE6A
:102F3000002859D12869000356D500980AF09CFE54
:102F400004464FE0A088B0424BD1202231460020F9
:102F500005F018FB060018D0A068002F017B427B0B
:102F600015D0334604980BF04BFA00200122296952
:102F7000D2049143296100282AD0692802D0304622
:102F8000FFF7EAFB002005B0F0BD6420FBE70A294B
:102F900006D00C290AD00E290ED0082912D023E021
:102FA0003246214628460CF0E7FADFE73246214652
:102FB00028460BF01BFFD9E73246214628460CF085
:102FC00011FAD3E73246214628460CF0A1F8CDE7A6
:102FD000214600980AF09DFE0121204605F02EFBB7
:102FE000CDE72468002CADD14120CCE7C4030020FC
:102FF00064070000024608480849006841188868CC
:10300000083103E0038D934202D200688842F9D16F
:10301000884200D100207047C403002064070000EC
:10302000034610B50E480F490068411888680831FA
:1030300003E0148D9C4203D8104602688A42F8D1FE
:103040008A420CD1018D994209D20146026A20318F
:103050008A4203D0416A898B994200D2002010BD78
:10306000C403002064070000024610B50B48120597
:103070000168092000020818C36E0020120DA0315B
:10308000097B07E044011C5B2405240D944203D016
:10309000401CC0B28142F5D810BD0000C40300201E
:1030A000F7B50546174601980AF0E6FD2E050446D9
:1030B000360D0CE0A0882568B04207D12146019862
:1030C0000AF027FE3946204605F0B8FA2C46002CB7
:1030D000F0D1FEBDF0B58BB000206349029063488B
:1030E0000A68141872B610464030C57902231D4391
:1030F000C57162B625464035287AC0077DD00920C3
:10310000000210180026C76E49E071017A5A002AA1
:1031100043D0C919069109694A021ED48A0226D5EC
:10312000022104910699012309880905090D0391DB
:10313000392149014118097C89070ED5D902083087
:1031400040182322C06C022109F060FF010004D066
:10315000039A8A80049809F045FF06980088009039
:10316000069800F085F8009809F07CF815E048070B
:1031700013D5069800880005000D09F005F8002811
:1031800005D1069800880005000DFFF7E5F80699BF
:1031900004200969814306980161761CF6B2324821
:1031A000AC210068095CB142AFD800F01BFF20469B
:1031B000243006460AF0A6FD012802D0012000F0C6
:1031C00015FE204618300AF09DFD012802D000208F
:1031D00000F00CFE3C3420460AF094FD01280FD08C
:1031E00002A920460AF0B7FD0420029901F0E8FE8A
:1031F0000028F0D02046029900E032E00AF059FDA4
:10320000287A00062DD530460AF07CFD012828D109
:10321000002005F093F9A98B23314909491CC9B253
:10322000FDF724F800281CD00F4D04462868012320
:10323000D9020830401842263822C06C314609F0C5
:10324000E5FE01000DD000228A80CC80304609F0D6
:10325000C9FE3D212A68490151180A7B802082431A
:103260000A730BB0F0BD0000C40300206407000027
:10327000F0B504463B483C49006885B04518218AB2
:10328000890419D502210491392149014118897C09
:10329000412627880123C9070ED0D90208304018DB
:1032A0003122C06C022109F0B1FE010004D08F80F0
:1032B0008E71049809F096FE294620880122183163
:1032C000FFF7EEFE2946208801223031FFF7E8FEA5
:1032D0002946208801222431FFF7E2FE2946208872
:1032E00000223C31FFF7DCFE20880005000DFFF7CF
:1032F000BBFE8500294611316846017301F03AFC96
:10330000294612316846017301F034FC2946133115
:103310006846017301F02EFC68461435057301F010
:1033200029FC208800F03CFA208801050D48090D91
:1033300002681320C0011018028A914201D10021B5
:103340000182E069002802D0012105F077F92022EE
:1033500000212046A568FDF71AF81720A5606080B7
:1033600005B0F0BDC40300206407000010B50B4891
:103370000B49006844184034207AC00709D0002067
:1033800005F0DCF8217A890701D5002803D0002058
:1033900010BD472010BD642010BD0000C4030020F4
:1033A00064070000F0B55FA099B000685E49159011
:1033B0005E4A08688418092212028218D26E2546D5
:1033C000403514922A7AD20702D0622019B0F0BD9B
:1033D000AA8B01235B029A4201D9AB8303E0172A2F
:1033E00001D21722AA83149AA0301392067B0DE013
:1033F000761EF6B2139871010F18B8680F90384610
:1034000020220021FCF7C3FF0F98B860002EEFD1F7
:1034100020460830E0606460A060246008301390AB
:1034200060612061FF22002108300AF03AFC20464A
:10343000FF22002124300AF034FC2046AA7F00211C
:1034400030300AF02EFC2046FF2200213C300AF0EA
:1034500028FC00222A7210461721334B05E0149EE7
:103460004701BE19401C7180C0B21E68A036367B71
:103470008642F4D8002028832F8C688C0026149074
:1034800008E02820E16C70430918204605F0E4FBB1
:10349000761CB6B2BE42F4D3002608E03020216D7F
:1034A00070430918139805F0D7FB761CB6B2149830
:1034B0008642F3D30120FFF765F9012468460470C2
:1034C0001B4941802346042269460CA8FFF76EFC85
:1034D000002822D16846018E818216490183042684
:1034E00006858475202108A881720024C4720473A3
:1034F00007214173847305A90DA8FFF70DFA002871
:103500000BD1684604874687818E15AB0EAA008EC4
:1035100000F0FEF9002800D158E70020287247206B
:1035200054E700000000FFFFC40300206407000010
:1035300001180000052A0000F8B5044683480E462D
:103540000068834947184820C05DC0076FD0B08825
:10355000FEF7C4FE0546012C02D0002C68D0F3E033
:10356000002D04D02869410703D54520F8BD01216D
:10357000C7E0B268F188147B0029F0D062060AD552
:1035800068888842F3D3D22C01D0522CEFD1384630
:103590003146183048E0A106890E1E2949D81E2C54
:1035A00020D101071ED508218843286129880120E0
:1035B00005F03AFB0121304605F040F8634801234D
:1035C0000068D9020830401842242D883922C06C86
:1035D000214609F01BFD010003D08D80204609F033
:1035E00001FDB1E0E1070BD01D2C1AD01B2C18D027
:1035F000410533D4012189020843EE612861A3E02B
:10360000C00606D52B4602220321422000F07EFE92
:10361000ADE72988002005F0F5FA2969102001435B
:1036200029613846314624300AF056FB8CE015E01B
:1036300016E029882022002004F0A4FF05000DD008
:103640000121304604F0FAFF2B46002221460620D5
:103650000AF0D6FE2846FFF77FF875E04120F8BD56
:10366000B068047B1D2C3CD01B2C43D0002130467D
:1036700004F0E4FF002D67D0032C46D0052C44D085
:10368000072C42D0092C40D00B2C3ED00D2C3CD026
:103690000F2C3AD0112C38D0132C36D0172C34D014
:1036A000192C32D0012C30D0022C35D0042C33D040
:1036B000062C31D0082C2FD00A2C2DD00C2C2BD03E
:1036C0000E2C29D0102C27D0122C25D0162C23D02C
:1036D000182C21D0522C1FD0D22C1DD01E2C2FD014
:1036E00032E0002D03D02988012005F08BFA314605
:1036F000022001E03146012000F052FD002823D0D5
:103700000021304604F09AFF1EE029691020814311
:1037100029612988002015E0286940218843286113
:10372000010511D5FF2101310843286129880220B4
:1037300005F068FA01202969C0028143296103E08C
:103740002988032005F070FA0020F8BDC40300208A
:103750006407000010B5104A104B1268D2184032AE
:10376000127AD20706D002280AD0052804D00B28E6
:1037700010D101E0412010BD4888FEF7CBFF09E0E1
:103780004888FEF7ABFD002804D0012201699205AC
:1037900011430161002010BDC40300206407000034
:1037A000F1B5FFB085B04720019000206946088040
:1037B00053485449006847188498FEF78FFD0290DB
:1037C000002874D0B96808374FE0684600880D4675
:1037D00004AC20186B460222283100F0C5FD684673
:1037E0000088294620186B4601222C3100F0BCFDD0
:1037F0002E462036307B69460128098804A809D066
:1038000040186B4610222946083100F0ADFD0190AA
:103810002C6A27E040186B460222F4E769460988C3
:1038200004A8401821466B4602221C3100F09CFD82
:103830006946098804A8401821466B4601222331B5
:1038400000F092FD2320005D69460128098804A844
:1038500030D0401821466B461022083100F084FD1C
:1038600001902468B442D9D12968B942ADD10198F8
:1038700000281CD16846008881070AD0224A011D11
:1038800011406A4611800A1A04A908180B21FCF796
:103890007EFD0298008808F077FC002807D1849804
:1038A00069460005000D04AA098807F021F87FB0D9
:1038B00006B0F0BD401821466B460222083100F0E8
:1038C00053FD0190208911498842CAD120460299AE
:1038D000FEF7E8FE4000A16903906A4609181288C5
:1038E00004A880186B46022200F03EFD0190A169F9
:1038F0000398022208180021FCF749FDB1E70000F7
:10390000C403002064070000FCFF0000022900003F
:10391000F0B5074617480E4600683D21490140189A
:10392000007B85B01D461446C00706D003A9384663
:1039300000F018FA00280AD102E0472005B0F0BDD7
:1039400004AA3046039900F0FDF9002801D0602058
:10395000F4E70499228860880968002A00D0088C5E
:1039600032466E4631C603233946002000F004F883
:10397000E4E70000C4030020FFB5002099B0239ABB
:103980000B90129005461490064615901C46DB4895
:103990000B460068DA49229F4118039100210891E3
:1039A00009915188069111880A913D2149014018D9
:1039B000007BC00706D00FA9184600F0D3F90028F5
:1039C0000AD102E047201DB0F0BD10AA0F991B9844
:1039D00000F0B8F9002801D06020F4E71998002819
:1039E00003D0600701D5012000E000201390A0075C
:1039F000800F1C90109817902030C078012840D17B
:103A00001798C04B01899942F9D117980699046813
:103A10000A98228C4118914233D8204620301690C3
:103A20008078012816D0E08B049017988069007880
:103A30008006800F7ED0039840301890007A80076F
:103A400078D51C980028F5D0AE4F0F99FF3720315C
:103A5000206814E0BA4214D3B942DDD80497E4E7F1
:103A60000389A84A934203D12322125C012A08D079
:103A7000BB4203D12322125C012A03D00068884292
:103A8000EED134E105900028FBD09C480921026862
:103A900009025118C96E0027009162E0780100996F
:103AA0000390085A01055AD01999002901D088427B
:103AB00055D105997A008B69511C595C9A5C0902B1
:103AC000891889B20D91890749D0022205990AF017
:103AD00015FD002804D01998002840D0652072E711
:103AE000002008A9C8551C98C00718D017988069ED
:103AF0000078C00613D50D98C00710D00120C85516
:103B00000543009A039880184088159A904206D978
:103B10001590009A0398105A0005000D14901C98F7
:103B200080071CD5179880690078800617D50D98F6
:103B3000800700E083E012D50220CA5D05430243FE
:103B4000CA5500990398401840881599884206D9AB
:103B5000159000990398085A0005000D14907F1CD9
:103B6000FFB266480068A030037BBB4296D8002DA8
:103B700065D01898007A00065FD460480168092073
:103B800000020818C16E00201BE042018E5A360563
:103B900015D0AE070BD556183669B7070DD408AF48
:103BA0003F5CBF0703D5360701D546200BE7EE077C
:103BB00005D05218127CD20701D0432003E7401CE5
:103BC000C0B28342E1D81598C01E86B204988642DE
:103BD00000D90646A8070FD520220020149904F02A
:103BE000D1FC129000287DD0F01C82B200211298E6
:103BF00000F0F4F8002811D1E80720D0202200209E
:103C0000149904F0BFFC0B90002807D0F01C82B27E
:103C100000210B9800F0E2F8002810D08020FEF779
:103C2000B1FD1298002802D0002104F007FD0B9886
:103C3000002802D0002104F001FD6420C3E6A16940
:103C40000A98069A08182499FCF79DFB1698807824
:103C5000012801D10498E083002D46D0274B09208C
:103C6000196800020818C16E002008AA0CE0430180
:103C7000CF5A3F0506D05F18BC463B69175C3B43F3
:103C800067463B61401CC0B21C4B1B68A0331B7BCA
:103C90008342ECD8A8070DD512980090F01C82B290
:103CA00021461C310220A369FEF736FB022012993F
:103CB00000F076FAE80718D00B980090F61C214621
:103CC000B2B21C310120A369FEF726FB139800282D
:103CD00005D00B988021C07C08430B99C874012043
:103CE0000B9900E005E000F05BFA00206BE6422053
:103CF00069E68020FEF746FD9FE70000C403002030
:103D00006407000003280000F0B58468083015E05F
:103D1000258D8D4203D1146018600120F0BD264628
:103D20001C602036256A06E0AF8B8F4202D102204C
:103D30001560F0BD2D68B542F6D124688442E7D104
:103D40000020F0BD10B50B6A203106E09C8B844248
:103D500002D10020136010BD1B688B42F6D14120B8
:103D600010BD000010B5094A094B1268D2189368BB
:103D7000083206E01C8D844202D100200B6010BD89
:103D80001B689342F6D1412010BD0000C4030020FF
:103D90006407000030B50F4B0F4D1B6804465B19DC
:103DA00040331B7A412085B09B0710D56B46998123
:103DB000DA81002018820420588203AA04A96D46E3
:103DC00007C502231A4601212046FFF7D5FD05B09D
:103DD00030BD0000C40300206407000010B5121DB0
:103DE000806892B204F048FC10BD0000F0B57B4939
:103DF0007B4A096885B08E18012806D030461830F5
:103E0000009009F039FF0446E5E030462430039085
:103E100009F032FF0546BAE0A8682F68007B0290DF
:103E2000A888FEF75BFA040073D0218820220020C6
:103E300004F0A8FB019000286CD0E88861888842D3
:103E400004D900220420019B029920E04620009022
:103E500002980E284ED00ADC801E030000F093FA70
:103E60000B1C13221329132F133813411300162888
:103E70005AD004DC102846D0122804D14BE0182870
:103E80005BD01D2872D000220620019B02990AF007
:103E9000B7FA002000905CE029462046019A0AF01B
:103EA000BBFB4FE02A4621463046019B0AF0E6FD67
:103EB00048E029462046019A0AF0E8FC42E02069E1
:103EC000000353D429462046019A0BF021F939E02A
:103ED000206900034AD429462046019A0BF04CFB86
:103EE00030E02069000341D429462046019A0AF0B7
:103EF0007DFF27E02069000338D429462046019A37
:103F00000BF070FA1EE029462046019A0BF00EF8DD
:103F100018E033E03EE02069800327D4294620469C
:103F2000019A0BF054FC0DE0206980031ED4294651
:103F30002046019A0AF09EFE04E029462046019A96
:103F40000AF0C4FB0090452810D069280ED04628FE
:103F50000CD0012120690906884320610198FEF7F1
:103F6000FBFB0098002809D010E0FFE70021019832
:103F700004F064FB009845280CD0F2E7294603982A
:103F800009F0C7FE0121284604F058FB3D46002DEC
:103F900000D041E705B0F0BDA0682668077BA08887
:103FA000FEF79CF905000DD0522F01D0D22F06D17B
:103FB000286940030ED4214628460BF072FB28697D
:103FC000400307D42146009809F0A3FE01212046B2
:103FD00004F034FB3446002CDED1DBE7C4030020C0
:103FE00064070000F0B55848584A016885B08A183F
:103FF00004920922120289180027CD6E95E07E01F5
:10400000A85B00287BD070190090C06900284BD0B5
:1040100000990969CA0532D54A0530D5806801245E
:10402000A402007BA143009A1D28116139D01B28EE
:1040300037D0009A927B824202D0012802D030E031
:10404000012806D10098C0698068407B401C8242EC
:1040500069D1C80509D5A95B022004F0E5FD0098E7
:10406000FF2201690132914301610098816988470B
:10407000452816D1009801692143016111E0012111
:1040800004F0DCFA00980021C16100980122016966
:10409000920291430161022211464220009B00F0EE
:1040A00035F9A85B00283ED004982430019009F02F
:1040B000E3FD044635E020680390A068AB5B017B1C
:1040C000A0881A05120D904201D11D2904D09042FA
:1040D00026D11B2932D023E000990969CA040FD4E4
:1040E00001221203009811430161A95B032004F02F
:1040F00089FDA95B2246022000F078F808E012E072
:104100006946088102AB02220321422000F0FEF83A
:104110002146019809F0FDFD0121204604F08EFAA8
:10412000039C002CC7D17F1CFFB207480068A03059
:10413000007BB84200D962E705B0F0BD22461946BF
:10414000022000F09BF8E3E7C403002064070000AE
:10415000F0B5944600220A806346104C1A60092389
:1041600022681B028646D2184120D26E00230FE03F
:104170005D01AD182F697646374207D06F880E88EB
:10418000B74203D90F806046056000205B1CDBB29C
:104190002568A0352D7B9D42EAD8F0BDC4030020E0
:1041A0007CB50C4605466A4601A9FFF7D1FF0028F9
:1041B00001D041207CBD6846E1888088814200D9D9
:1041C000E08000980088A0802046FEF7C5FA00989D
:1041D000012D07D001690822114302229143016198
:1041E00000207CBD016949084900F8E7F7B506469B
:1041F00090799168C01E82B01746C5B20222684607
:104200000D31FCF7C0F8681D03210843401C8308EA
:104210001948F10603D53222BF210E400AE03922A7
:10422000016852018918497C890602D4002005B032
:10423000F0BD2F2231070068890E08180121C9023C
:104240004018C06C314608F0E1FE040011D003981C
:10425000A08068460088E080234625722A46072110
:104260003846093304F04EF92146304608F0BAFECC
:10427000DCE70720DBE70000C4030020F7B50646B3
:1042800090799168C01E82B01746C5B20222684676
:104290000D31FCF778F8681D03210843401C8308A2
:1042A0001948F10603D53322BF210E400AE0392216
:1042B000016852018918497C490602D4002005B0E2
:1042C000F0BD302231070068890E08180121C902AB
:1042D0004018C06C314608F099FE040011D00398D4
:1042E000A08068460088E080234625722A46072180
:1042F0003846093304F006F92146304608F072FECC
:10430000DCE70720DBE70000C4030020FFB505461B
:10431000012381B016460F46C00603D52422BF20D4
:10432000054000E021220F4928070968800E401847
:104330000121C9024018C06C294608F067FE04003C
:104340000DD0277166713246A01D0499FCF71BF849
:104350002146284608F046FE002005B0F0BD0720A3
:10436000FBE70000C403002010B51C88A418A4B209
:104370001C8001235B029C4203D8FCF704F8002058
:1043800010BD412010BD30B47446641E2578641CF5
:10439000AB4200D21D46635D5B00E31830BC18479A
:1043A000F7B5164600241CE0009811490019401882
:1043B0008108019889000019427805781202154396
:1043C0008278C0781204000602430948154340422F
:1043D0000F1829463846FCF703F83868854204D19F
:1043E000241DB442E0D30020FEBDFB20FEBD000032
:1043F0000000FCEFF0B50E460746002407E03D192B
:1044000000F0CEF82870000A6870A41CE4B2B44230
:10441000F5D3F0BD10B5012818D8072916D80C4AD5
:10442000126813462033187759778007C906000EA3
:10443000090E01430020074BA03204E08401E41878
:10444000A172401CC0B2147B8442F7D8002010BD7A
:10445000C403002000010020F0B54F4F0446386827
:1044600085B078300D461646002C10D0062C14D09E
:10447000082C0FD0182C0DD0282C0ED02A2C0CD0A4
:104480002C2C0DD02E2C0ED0D02C47D048E0062D51
:104490000FD045E0102D0CD042E0022D09D03FE0B6
:1044A000012D06D03CE0062D3AD171798909032906
:1044B0006FD100192A463146FBF765FF2C2C26D117
:1044C0003078002823D000F042F9012822D01B20A8
:1044D0001F304009401C41004118012004F01CF825
:1044E00000F035F9012817D01B201F30400941008A
:1044F00041182A484078401AC01EC1B2002004F07A
:104500000BF83868F9224030017811400170002022
:1045100005B0F0BDFB20DBE7FB20E6E7012D04D072
:1045200000F015F9012804D005E0107808F073FCBC
:10453000EEE7D12C02D02F2C1ED02AE0082D28D156
:10454000022231466846FBF71EFF0222B11C01A879
:10455000FBF719FF0222311D02A8FBF714FF02220C
:10456000B11D03A8FBF70FFF684683890289818884
:10457000008802F0B3F8CBE7012D0AD1307800288B
:1045800007D0082805D2492239685201891888764F
:10459000BDE71220BCE70000C4030020EC020020AD
:1045A00000210B200007026852070DD50268042382
:1045B0009A430260026808231A43026004E0491C1F
:1045C000052901DD0020704742689207F7D5416850
:1045D000C907FCD0806880B2704710B5FFF7E0FFD4
:1045E0000446FFF7DDFF0004201810BD10B5044895
:1045F000044B006804220021C018FBF7C8FE10BD60
:10460000C40300203907000004E003780B70401C4D
:10461000491C521E002AF8D1704700003EB50B48D5
:1046200001AA0468694602A8683400F01FF800284F
:104630000BD06846007AE18801228240114204D002
:1046400069460978019AFCF7F2FE3EBDC4030020DA
:104650000548002100686830017141710268D20884
:10466000D2000260C1807047C403002070B51446B8
:104670000D4A136872B668331A79002A01D00125F1
:1046800000E0002500221A715A790270187840075C
:10469000400F087018684001000A00F097FA206087
:1046A00062B6284670BD0000C403002003E0087015
:1046B000000A491C521E002AF9D1704710B501F0BA
:1046C0006FFF00F041F800F042F8012801D101F03D
:1046D0006BFF05F005FC01F069FF10BD70B5184CCB
:1046E000072120680902411800260E77154B4E77E6
:1046F0000622FF21C018FBF74AFE392520686D010C
:10470000401906712021417100F021F8012814D0D0
:104710001F2021680B4B4919887120680933072233
:104720000021C018FBF733FE064B2068103305222A
:10473000FF21C018FBF72BFE70BD5F20E9E70000EA
:10474000C40300201E0700007047002070470020AF
:10475000704710B5002302F007FC10BD0A4610B5E3
:104760000146002002F050FC10BD10B501460022A9
:10477000412002F049FC10BD10B50A461F2801D99E
:10478000122010BD0146104605F0CCFA10BD000005
:10479000FEB5064602200190B0880090B57903214D
:1047A000681D0843401C83081348022100688C02DE
:1047B00008300019377B1122C06C08F027FC040078
:1047C00017D00098A0800020A771E0710146234611
:1047D00025812A4630460A3303F094FE214601988B
:1047E00008F000FC00240121304603F027FF20469A
:1047F000FEBD0724FBE70000C4030020F8B5074610
:1048000085880E4810220068D4010830022600195D
:1048100001233146C06C08F0F9FB01000CD08D80FB
:1048200001220024CA80304608F0DCFB0021384613
:1048300003F004FF2046F8BD0724FBE7C403002073
:10484000074A914202DC5242914200DA1146FF22AD
:10485000993251430A1251180A1451180818704716
:10486000FFFF4F0010B50920C00600690002000AD2
:1048700000F0ACF910BD70B50D460446FFF7F2FF2D
:104880002946FFF7DDFF0146204600F001F870BD24
:104890001FB56A463A3010736846029100F030F94D
:1048A000002800D0012004B010BD000030B5EFF3A7
:1048B000108172B60922D2061269FF25821A1202ED
:1048C00014120C4A91351368AC4208DC012212061E
:1048D00090431A464032D479DF252C40D471C2016E
:1048E0000724D20924021B19DA65034A906081F378
:1048F000108830BDC40300204000004810B50300FC
:10490000FFF741FD3A332D2D2D1E2130332A2A2A5F
:104910002A2A2A2A2A2A2424242424242424242433
:104920002424242424242424242424242424242447
:104930002424242424242427272727272727273310
:10494000FDF744FA10BD04F073F810BDFDF726FF23
:1049500010BD00F05BFB10BD07F068FB10BD07F059
:10496000E1FD10BDFDF7F4F810BD3A38C0B20428DF
:10497000FAD2FCF753FD10BD0348DF220068403037
:10498000C1791140C1717047C403002070B50B4854
:104990001D21006889014418264664600836246099
:1049A000E6600025A660206929014118304604F020
:1049B00053F96D1CEDB20B2DF5D370BDC40300206F
:1049C000F0B5002693B0701E0E9042481D2100687D
:1049D000890144180920C0060069374605022D0ADE
:1049E00072B6A0692146281A0002000A223105F099
:1049F0002FFB6169A561401860613648006840304E
:104A0000C1798A0663D420221143C17162B6256838
:104A100014E0A8686169401A00280ADCBA0001A8FD
:104A2000761C85507F1CF6B2FFB2287BFFF766FF2D
:104A300003E00E99884200D20E902D68A542E8D17D
:104A40002046083000250C901830129018E0AF0076
:104A500001A8761EC159F6B2204604F01CF901A83F
:104A6000C1590C9804F0F8F801A8C059007B3A2805
:104A700004D2129812990078401E08706D1CEDB295
:104A8000002EE4D12068A04217D03D256D042846B1
:104A900005F0D6FA01460E98814201D8284601E079
:104AA00005F06CFAA169081800020121000A090644
:104AB0004018FFF7FBFE13B0F0BD72B600200549A9
:104AC0000722096812028918C8650349886062B61E
:104AD000F1E70000C40300204000004810B5044680
:104AE0000920C00600690002000A00F06FF8A16802
:104AF000FFF7A6FEA060204600F002F810BD0000FF
:104B0000F8B51B4D06461D21286889014418317BE4
:104B1000481E3E2801D34220F8BD2046A268083036
:104B2000824205D03A2905D22021095D072901D307
:104B30006420F8BD694604F0A1F8102231460098BF
:104B4000FBF721FC2046009904F086F80098007BD2
:104B50003A2803D220342078401C207072B628688E
:104B6000DF224030C1791140C17162B60020F8BD2A
:104B7000C403002070B5144E1D22316892018D18B7
:104B80002C681DE0017B227B914218D121462846EA
:104B900004F081F828462146083004F05DF8207BB7
:104BA0003A2803D220352878401E287072B6306823
:104BB000DF224030C1791140C17162B670BD2468F6
:104BC000AC42DFD170BD0000C403002010B507491E
:104BD0001D22096892018C18A169401A0002000A7E
:104BE00005F02EFA6169081810BD0000C40300200A
:104BF00070B50E46054601462022002003F0C2FC97
:104C0000040023D0284600F06BF8050027D028794F
:104C1000B04224D1A87880071FD4A0680121017375
:104C2000A06800214673A06802268673A068C1733D
:104C3000A0680174A06841740620E0802146052028
:104C400000F0BEF9002803D0412509E064250BE0FF
:104C5000A8783043A870002506E0462500E04225EC
:104C60000021204603F0EAFC284670BD7CB51446BE
:104C70000D4600281ED1052D02D00B2D07D011E0C6
:104C8000627921796088A31D07F0F0FB0AE02146D4
:104C90001231881F01910090627921796088A31DEB
:104CA00007F0FBFB21462846FEF754FD2146284627
:104CB00000F0B4FA7CBD70B505460C46002000F04B
:104CC0000FF800280BD02905090D01800021817003
:104CD000002C01D10821817001210171C17070BDCA
:104CE00030B502460A4801230068DB020021C318E0
:104CF000A030047B07E0586B0D01401905889542F0
:104D000004D0491CC9B28C42F5D8002030BD000047
:104D1000C403002030B50A49012309680246DB02BA
:104D20000020CB18A031097B07E05C6B05016419FA
:104D30002488944203D0401CC0B28142F5D830BDD3
:104D4000C40300208068017A407A0002081880B20B
:104D50007047000070B50023134A1DE00125ED02E5
:104D600040191901466B0024C81C345410684019BE
:104D7000466B081D345410684019406B445210684B
:104D80004019466B08460830345210680C314019FF
:104D9000406B5B1C4450DBB21068AC21095C99424B
:104DA000DCD8002070BD0000C403002010B502460E
:104DB00088680C46817AC07A0002081881B2E088BF
:104DC000001FE080042909D005290CD006290FD046
:104DD0000121204603F032FC002010BD2146104680
:104DE000FEF7AAFB08E02146104600F03FF903E079
:104DF0002146104607F03CF90028EED0E188091D55
:104E0000E18010BDF3B581B00D4600268888FFF71C
:104E100067FF070056D0287B3C46083400900228E4
:104E2000F86833D0002845D0E888002810D02188C1
:104E300040182080284603F07BFB014660688068AC
:104E400002F0D4FA0120616803F032FB0020E88010
:104E50002088042828D36068FFF774FF001D21888C
:104E600080B2814226D881421BD16168C8806168C6
:104E70000198FFF79BFF0146002000290ED06168D2
:104E8000A94201D16060208045261FE0002801D0A2
:104E90004526DDE76560E8882080D9E760602080EE
:104EA0000BE0452E06D008E0452E06D1384600F02E
:104EB000C7F90BE0384600F0C3F9002E06D1009880
:104EC000012803D10121284603F0B8FB3046FEBD7E
:104ED000024610B50020002A05D0012A02D1104652
:104EE000FFF790FF10BD1046FFF760FF10BD70B5D3
:104EF0000546801E0C460300FFF745FA0A0C1D1DEF
:104F000006170B0B0B0B060B0A4620782946FFF7FA
:104F1000ADFE70BD2846FEF71DFC608807F0EEF977
:104F20002146284600F07AF970BD4A890888A11CFC
:104F300007F0DCFA70BD62880978284607F0FEF9B0
:104F400070BD0000F0B585B0FFF7E4FE1B4D0446D0
:104F50002868A030007BA0422DD920463230694617
:104F600008736846FFF706FE01262868F6028019D6
:104F7000426B002124011153286827468019426B97
:104F8000E01C115428680C378019426B201D115405
:104F900028688019406BC05900280CD0012103F00B
:104FA0004DFB296800208919496BC8512968891966
:104FB000496B0834085305B0F0BD0000C40300205D
:104FC00010B50C460146042805D0052903D0062952
:104FD00001D0502010BDA068A2790272E088020AB8
:104FE000A0684272A0688172A068090AC172E08854
:104FF000001DE08002202073204608F07FFD00287D
:10500000E8D0E088001FE080412010BDF8B53238BC
:1050100001060220144E009001253068ED020C0DAF
:10502000421939214901526B4118C97B175B012391
:1050300049070CD5083040191E220221C06C07F028
:10504000E5FF010003D08F80009807F0CBFF3168A7
:10505000002049194A6B211D505431684919496B88
:10506000E41C0855F8BD0000C4030020F0B50D464F
:105070008DB000210A91A96800280F7B02D0012879
:1050800022D0C3E0A888FFF745FE624E0446306890
:10509000A030007BA04215D9122F08D15E480290A3
:1050A00020463230694608736846FFF717FD012035
:1050B0003168C0020818406B210140188178FD2238
:1050C0001140817000219EE0A888FFF723FE06466C
:1050D0005048AC220168525CB24218D90120C0028B
:1050E0000818406B32018418A278100710D5122FCF
:1050F00010D1500710D4A9882A46422000F0CEF8DB
:10510000A07804210843A070A868407B207179E052
:10511000132F0AD0012F41D0A868417BA888FFF740
:1051200067FD0A9000286DD070E0A868E778437B9F
:10513000BB4267D1520765D5027C407C0123000247
:10514000101887B242200490A888069039204001A8
:105150000818C07B80070FD5D802083108181D2217
:10516000C06C049907F052FF010005D0069A8A80AE
:10517000CF80049807F036FFA078FB210840A0708C
:10518000E078401C0006000EE07001D10120E070C4
:10519000684632360673FFF7EDFC33E0100731D472
:1051A000A868E178407B88422CD150072AD5FB20A3
:1051B0000240A270E078401C0006000EE07001D1B1
:1051C0000120E070684632360673FFF7D3FC1148C1
:1051D000202200689101083040184224AE88022342
:1051E000C06C214607F012FF01000BD0A868437B7A
:1051F000877BC07B8E80000238188B710881204627
:1052000007F0F0FE0121284603F018FA0A980DB0C5
:10521000F0BD0000C40300203075000010B5022866
:1052200009D0052801D00B2808D108460979408803
:10523000FFF741FD02E04888FFF784FE002010BD23
:10524000F8B50546807810210843A87042200090E8
:105250001148C901006801270830401802263B4662
:105260002122C06C009907F0D1FE04000AD02771FA
:10527000667132462946A01DFBF785F82146009845
:1052800007F0B0FEE868002805D0012103F0D6F948
:105290000020E8602881F8BDC4030020F7B504238E
:1052A0000446C10622481546006803D52222BF21C4
:1052B0000C4006E0392149014118C97BC90732D0A9
:1052C0001F222107890E08180121C9024018C06C4D
:1052D000214607F09BFE010027D0AA68081D577BD6
:1052E000D57B937BBE462D025F19557C137C2D0226
:1052F0005E19D57C937CBC462D025D19577D137DCC
:105300003F02DB19977DD27D1202BA18019F0780F8
:105310007746877067468780C68005814381828192
:10532000204607F05FFE0020FEBD0720FEBD000006
:10533000C403002000207047F8B50926F60631683E
:105340007A487B4A816013687A4A9D18002202706D
:1053500042708261C261027142718271764A128822
:10536000F4145207520F82701C196027A46E574321
:10537000E719724C92011219C7600261BA78C270C3
:1053800057077F0F8803800F7ED16B4A188E50809D
:105390006B48664C01409013814204D1FFF7ECFA50
:1053A000A0683060F8BD03F041F8002807D16048DC
:1053B0000088503081B2012000040818F0605C4978
:1053C000002009684031C871E168C8735D49B800C0
:1053D00008588047A068002806DA03F027F800285C
:1053E00002D1A07801F07CF9012F04D0022F19D04E
:1053F000052F17D03FE0A068C0013CD503F016F898
:10540000002838D1A0684003287E05D4022832D075
:105410006079002809D02EE0022806D0A079012862
:1054200003D028E02078012825D14848464901606A
:10543000232141606421684601706A461078401E4D
:105440001070F068C00302D510780028F5D11078EC
:105450003E4882B2012000041018F06068460170D6
:1054600069460878401E0870F068C00302D50878C5
:105470000028F5D10878206900902946A369E268E0
:10548000E06901F03FFA00E033E029462369E26871
:10549000E0690AF0C9FB207801282AD1E068006A97
:1054A000002826D00068002823D00027C17C05688A
:1054B000C9091CD0E268116A814208D10B681362E5
:1054C0000F60E1680A6A002A0ED14F620CE00A6898
:1054D000824203D0114612688242FBD10D60E2681D
:1054E000536A834200D15162002103F0A7F82800DB
:1054F000DCD10E4C2089000401D5FFF73DFAA268EB
:105500001349D00306D50A48022400684018836B6B
:1055100023438363900306D505480423006840189D
:10552000816B194381633260F8BD00007C03002069
:10553000C403002058080000C0000020CC00002058
:105540000080FBFFA4030020022301029C03002033
:1055500000080000CA6802608A6842604A68826087
:105560000968C16070470000F8B50C46CA88098A0E
:105570004030521A8089102695B2A84205D20546BD
:10558000E07C4006400EE07403E02068002800D173
:105590000026002904D1207B800701D5022000E0ED
:1055A0000120CF060643FF0EE81982B20E48A1691A
:1055B0000368092000021818406F001D01F01FFF4A
:1055C00060610948A5740168092000020818416F4C
:1055D000B81C0E5404480168092000020818406FE6
:1055E000FF1CC555F8BD0000C403002018B40168B5
:1055F000184ACB6813608C68012354604C6894602F
:105600000968D1604168144ACC6814608C685460A1
:105610004C6894600968D16064216A46117009225F
:10562000D2066C462178491E21705169C90402D402
:1056300021780029F5D122782270084A8168D4683F
:105640000C6094684C6054688C601268CA60037384
:1056500018BC70471800004828000048380000486F
:10566000F0B5EF48EF49006895B04418EE4941188D
:105670000391EE498968CA017ED54A03EB4909695D
:105680007BD4C889012252078018408885188889F0
:105690008018408806A9871828780607360F2846FC
:1056A00003F05CFCE1488068002867DA022012AB56
:1056B000032E02D0052E69D07AE1DC4EF178C906BE
:1056C0005CD501217171D6490968E031097C002956
:1056D00021D008A9087003980C90099510A80E9085
:1056E0000A970B930D94084600F058FF30713079FB
:1056F000012843D001200006B0613069018A2046AC
:105700008030026A1180018C30690182817A8022A6
:10571000114381724CE104A9284603F015FCA81C32
:1057200001460A786B7910464A78120210438A784B
:10573000C978120410430906084329780002490673
:10574000C90F08431946AB792A7A1B021943EB7932
:1057500012061B0419431143090200F013FF0499B8
:1057600022689142C3D1059962689142BFD1012854
:1057700006D0F078400602E049E19FE088E002D5DB
:1057800000203071B6E70120307111E1A749C978D6
:1057900009077DD5012600210922D2065160A049C2
:1057A0000968E031097C00292ED008A90870039807
:1057B0000C90099510A80E900A970B930D9408462B
:1057C00000F0ECFE01469948017110A800F0B0FD10
:1057D00001286DD0954E3079012869D0306900904C
:1057E00006AB21462846F26803F0C2FB8C49002034
:1057F00009682031C8742046C030C17BB27891421C
:1058000046D10821C173D3E00027089704A9284690
:10581000099703F099FBA81C01460A7810464A78BC
:10582000120210438A78C97812041043090608430B
:10583000297800024906C90F084308906A79297A35
:105840001046AA79090612021043EA79120410439D
:1058500008430002000A099008A800F069FD012829
:1058600000D1002609980102089800F08BFE01463D
:105870006E4801220271049A23689A4216D1059A51
:1058800063689A4212D1012904D0C178090600E068
:105890008EE00BD5C178890607D50699A26891429A
:1058A00004D10799E268914200D10771002E91D18D
:1058B000A420015B5D480069018279E05B4A8B8925
:1058C000A021095B89B28B4201D101219171232171
:1058D000490141188979524D012969D11121890164
:1058E0004218927DFF2A63D037214A431218FF32B3
:1058F00041320394507B002836D11321C9012E6810
:1059000013787618B76806462A36BB552E68521C9F
:105910007618B76806465236BB552E687618B768B3
:1059200006467A36BB552E687618B7680646A23604
:10593000401CC0B2BB550628E1D32868402240185D
:10594000816820310B7A13430B72816840310B7CE4
:1059500013430B74816860310B7E13430B768068B0
:10596000A0300178114301700398007E012819D1FD
:105970001121286889014118897D3722514309186E
:10598000FF202F30405C00280CD10398FF31406B82
:105990004831083000F0A7FC03988022406B017862
:1059A0001143017023212A68002049015118887190
:1059B0001E480369997A090629D51D8A2246803234
:1059C000918C89B28D4222D12F21158A095DD9721D
:1059D00000210923DB065960FF23691E55339942D4
:1059E00000D81182002D04D101218161807802F05C
:1059F000C7F90B484921006849014018407E00283A
:105A000002D0012004F050FC012008F0BBF9074847
:105A10008068400302D5204603F0D6F915B0F0BDEA
:105A2000C4030020580800003C0900007C0300204B
:105A3000F0B5FF4885B00168FE480C18FE4EB1680D
:105A4000C8017DD5204680300090806B827AEE239D
:105A50001A40827230464A030125C068002A42DBA0
:105A60004A0105D500200921C9064860357036E095
:105A70004A0012D5C178491E0906090EC17003D12A
:105A80000922D2065160357041790A0627D54906A8
:105A9000490E41718169416121E0E84A11420AD011
:105AA000224620329570490202D50321917000E010
:105AB00095708169416101792246C17040329179C6
:105AC000002908D00921C9068968A16400210223A0
:105AD000E1649377A16541794906490E417100203F
